:0C000E000A10C0F9A4B0999282F880900A
:1003D400D290C290D2911203EBC2911203EDC2905B
:0703E4007F027E000203F11D
:0F03FC00D290C290C2911203ED1203EBD2912264
:10039800E4FEEF30E703D38001C39291D290C2907C
:0D03A800EF25E0FF0EBE08EA1203EBC29045
:0103B5002225
:10036F00E4F51FF51E1203ED1203EBA2919200E5C7
:10037F001F25E0F51FA200E433421FC290051EE5C2
:08038F001EC3940840DFAF1FFC
:010397002243
:020259008F1BF9
:10025B001203D47FD0120398AF1B1203981203D44E
:10026B007FD112039812036F751C008F1D1203FCB4
:10027B00E51CC4F854F0C868FEE51DC4540F48FFD4
:10028B007C007D0A120199E51D540F2FF51DEC3EE4
:04029B00F51CAF1D82
:01029F00223C
:040313008F1B8D1C93
:10031700AF1C7E007C007D0A1201ABE51C75F00A5C
:1003270084C454F04DF51C1203D47FD0120398AF48
:0C0337001B120398AF1C1203980203FC79
:0603EB00D2907F027E00AB
:0B03F100EF1FAC0670011E4C70F622DE
:0C040B007590FFE4F580F5A075B0FF22AD
:1003B600758911758CFD758A18758D3C758BAFD254
:0E03C600ABD2A9D2AFC28DC28FD28CD28E2202
:1002DA00E50CB43C05E4F50C050EE50EB43C05E46A
:1002EA00F50E050DE50DB41803E4F50DE50CB4FFA4
:1002FA0005750C3B150EE50EB4FF05750E3B150D85
:09030A00E50DB4FF03750D172287
:1002000020B41F051AE51AB40418E4F51AAD0D7FE1
:1002100002120313AD0E7F01120313AD0CE4FF12A3
:100220000313E51AB4010A20B502050D20B6021524
:100230000DE51AB4020A20B502050E20B602150E0D
:10024000E51AB4030A20B502050C20B602150C12FB
:0902500002DA7F207E4E0203F168
:03001B000203439A
:10034300C0E0C0D0C28EC28F758D3C758BAF050BDC
:10035300E50BB40A10750B00050F750901E50FB421
:0C0363000203750F00D28ED0D0D0E03223
:03000B0002001ED2
:10001E00C0E0C0F0C0D075D000C000C28CC28D75DB
:10002E008CFC758A18050AE50A64017027E51AB476
:10003E00030BE50FB40106050A050A8017850C08A7
:10004E0075A0FF758020E50875F00A84741025F000
:10005E00F8E6F5A0E50AB4021275A0FF758010E56A
:10006E000875F00A842410F8E6F5A0E50A6403701A
:10007E0027E51AB4020BE50FB40106050A050A803E
:10008E0017850E0875A0FF758008E50875F00A84BF
:10009E00741025F0F8E6F5A0E50AB4041275A0FF79
:1000AE00758004E50875F00A842410F8E6F5A0E5DD
:1000BE000AB40526E51AB4010AE50FB40105750A5E
:1000CE00008017850D0875A0FF758002E50875F094
:1000DE000A84741025F0F8E6F5A0E50AB406157545
:1000EE00A0FF758001E50875F00A842410F8E6F586
:0F00FE00A0750A00D28CD000D0D0D0F0D0E03264
:1002A00012040BE4F50AF50BF50DF50EF50CF51A35
:1002B000F5091203B6120200E51A70F9E509B40156
:1002C000F4E4F509FF1202598F0C7F011202598FD5
:0A02D0000E7F021202598F0D80DB31
:0300000002010DED
:0C010D00787FE4F6D8FD758120020154D3
:10019900EF8DF0A4A8F0CF8CF0A428CE8DF0A42E7A
:0201A900FE2234
:1001AB00BC000BBE0029EF8DF084FFADF022E4CC38
:1001BB00F875F008EF2FFFEE33FEEC33FCEE9DEC01
:1001CB00984005FCEE9DFE0FD5F0E9E4CEFD22ED47
:1001DB00F8F5F0EE8420D21CFEADF075F008EF2F91
:1001EB00FFED33FD4007985006D5F0F222C398FD82
:0501FB000FD5F0EA221F
:100119000202A0E493A3F8E493A34003F68001F25A
:1001290008DFF48029E493A3F85407240CC8C333E7
:10013900C4540F4420C8834004F456800146F6DFB6
:10014900E4800B010204081020408090000EE47E38
:10015900019360BCA3FF543F30E509541FFEE493AB
:10016900A360010ECF54C025E060A840B8E493A372
:10017900FAE493A3F8E493A3C8C582C8CAC583CA9D
:10018900F0A3C8C582C8CAC583CADFE9DEE780BE55
:01001A0000E5
:00000001FF
